:100000000C94AC010C94F3010C94F3010C94F301E7
:100010000C94F3010C94F3010C94F3010C94F30190
:100020000C94F3010C94F3010C94011B0C94D41B5D
:100030000C948D120C94F3010C94F3010C94F301C5
:100040000C94F3010C94F3010C94F3010C94F30160
:100050000C94F3010C94F5120C94F3010C94F3013D
:100060000C94F3010C94F3010C94F3010C94F30140
:100070000C94F3010C94F3010C94F3010C94F30130
:100080000C94F3010C94F3010C94F3010C94F30120
:100090000C94F3010C94F3010C94F3010C94F30110
:1000A0000C94F3010C94F3010C94F3011E001F0057
:1000B000200021002200230024002500010001006F
:1000C0000100010001000100010001000100010028
:1000D0000100010001000100010001000100010018
:1000E0000100010001000100010001000100010008
:1000F00001000100010001000100010001000100F8
:1001000001000100010001000100010001000100E7
:1001100001000100010001000100010001000100D7
:1001200001000100010001000100010001000100C7
:1001300001000100010001000100010001000100B7
:1001400001000100010001000100010001000100A7
:100150000100010001000100010001000100010097
:100160000100010001000100010001000100010087
:100170000100010001000100010001000100010077
:100180000100010001000100010001000100010067
:100190000100010001000100010001000100010057
:1001A00001000100010001000100010012036B00C9
:1001B0006500790062006F00610072006400000059
:1001C000160371006D006B006200750069006C0021
:1001D00064006500720000000403090409026D0058
:1001E000040100A0FA090400000103010100092133
:1001F000110100012240000705810308000A0904DB
:1002000001000103010200092111010001224D003A
:100210000705820308000A09040200010300000028
:100220000921110100012236000705830308000A95
:10023000090403000103000000092111010001224B
:10024000390007058403200001120110010000009D
:1002500008EDFE606001000102000105010906A130
:1002600001050719E029E7150025019508750181A9
:100270000205081901290595057501910295017579
:100280000391010507190029F71500250195F87557
:10029000018102C005010980A10185021601002625
:1002A00003001A81002A8300751095018100C005A2
:1002B0000C0901A1018503160100269C021A010008
:1002C0002A9C02751095018100C005010902A10157
:1002D0000901A10005091901290515002501950548
:1002E000750181029501750381010501093009310C
:1002F0001581257F95027508810609381581257FAE
:10030000950175088106050C0A38021581257F952F
:100310000175088106C0C005010906A1010507197C
:10032000E029E71500250195087501810295017501
:1003300008810105081901290595057501910295A6
:1003400001750391010507190029FF150026FF001B
:10035000950675088100C00011241FBECFEFDAE0BA
:10036000DEBFCDBF04B603FE27C080910F0290917F
:100370001002A0911102B09112028730904BA74059
:10038000B04BD1F410920F02109210021092110291
:100390001092120214BE84B7877F84BF0FB6F89400
:1003A000A895809160008861809360001092600041
:1003B0000FBEE0E0F8E3099511E0A0E0B1E0E0E372
:1003C000FEE302C005900D92A033B107D9F722E0F9
:1003D000A0E3B1E001C01D92AF30B207E1F70E9487
:1003E00050180C94161F0C94000090E080E00895C3
:1003F0000895089581E00895089581E008950C948A
:10040000FA010E940D0B2FEF84E39CE02150804005
:100410009040E1F700C000000C941A13FF920F9374
:100420001F93CF93DF938C01FC01C081D181809118
:10043000640181113FC082818823B9F1CE010E94FD
:100440006E10F82E682FCE010E941A10BE018F2D5B
:100450000E945503EC01B8010E94FF01882309F4B2
:100460004AC0B801CE010E946305882309F443C045
:10047000C531F0E7DF0718F5C23080E7D80708F08C
:100480004BC0C115E0E7DE0789F1C130D047D1F19B
:1004900081E08093320180933301C801DF91CF91D5
:1004A0001F910F91FF900C94FD01CE010E94461008
:1004B000F82ECCCFCE010E946E10BE01C9CFCC3336
:1004C00080E7D80709F4ACC0CD33D04709F7F8016D
:1004D0008281882309F4CBC0109233010E94BF129D
:1004E000909331018093300180E2A7C0F8018281AE
:1004F00081110E94010280E0DF91CF911F910F9145
:10050000FF900895F80182818823A9F38091CF019B
:1005100081608093CF01EFCFF8018281882309F4B5
:10052000BCCF0E941F12811102C00E9405120E94BE
:100530003C1290E09093010280930002FE01E35090
:10054000F047809100028160E231F105C8F4E55581
:10055000FD4F0C94C61EBD02C902CD02D102D502C8
:10056000D902DD02E102E502E902ED02F102F50243
:10057000F902FD0201030503090380910002826074
:1005800080930002809100020E9440120E940D0B95
:10059000B2CF809100028460F3CF80910002886026
:1005A000EFCF809100028061EBCF809100028062EA
:1005B000E7CF809100028064E3CF809100028068E1
:1005C000DFCF809100028460EACF809100028E7FAD
:1005D000D7CF809100028D7FD3CF809100028B7F97
:1005E000CFCF80910002877FCBCF809100028F7E9A
:1005F000C7CF809100028F7DC3CF809100028F7B97
:10060000BFCF809100028F77BBCF809100028B7F9C
:10061000EACF90910002892F97FB87F98058B0CFDD
:10062000F8018281882361F0109232010E94BF128A
:10063000909331018093300182E00E9497085BCF54
:100640008091320181110FC0809130019091310170
:100650000E94CB12883C910530F486E20E946C0720
:1006600086E20E94480882E00E949E0844CF809162
:10067000330181110FC080913001909131010E94AE
:10068000CB12883C910530F487E20E946C0787E228
:100690000E94480880E2E8CF0C94B2050C94B4059F
:1006A0000C94FC010C9450030895272F260F332738
:1006B000331FF90138E0839FC0011124E80FF91FAF
:1006C000EE0FFF1FE455FF4F859194910895FC01B3
:1006D000EE0FFF1FE455FE4F8591949108950E94FF
:1006E00055030E94E204811520E4920708F08DC0B2
:1006F000811540E3940708F0E8C0803E910508F0BA
:1007000071C0803C910508F0CCC0883A910580F416
:10071000853A910508F0CAC08130910509F46EC090
:1007200020F08430910508F069C090E080E00895E1
:100730008D3B9105D0F7883A910509F404C1893AB7
:10074000910509F403C18A3A910509F402C18B3A73
:10075000910509F401C18C3A910509F400C18B3B64
:10076000910509F4FFC08C3B910509F4FEC08D3A58
:10077000910509F4FDC0803B910509F4FCC08E3A57
:10078000910509F4FBC08F3A910509F4FAC0813B49
:10079000910509F4F9C0823B910509F4F8C0833B47
:1007A000910509F4F7C0843B910509F4F6C0853B37
:1007B000910509F4F5C0863B910509F4F4C0873B27
:1007C000910509F4F3C0883B910509F4F2C0893B17
:1007D000910509F4F1C08A3B910509F4F0C080E06D
:1007E00094E408958F3F910509F048F4803F910506
:1007F00008F067C0883E910508F097CF08958115ED
:1008000020E2920708F05FC00895811543E5940740
:1008100060F5811522E5920708F062C0811541E577
:10082000940708F058C0811520E5920708F450C0DD
:100830009C0154E0369527955A95E1F7922F9370D5
:10084000482F437021E030E002C0220F331F4A9549
:10085000E2F73C68392B86958695837040E2849F49
:10086000C0011124822B932B0895811545E594072F
:1008700050F4811524E5920708F446C0982F882784
:10088000846F906A0895811546E5940708F450C076
:100890009C0130569F702115304108F046CF906280
:1008A0000895805C91090E9467030895853A910537
:1008B00009F443C0863A910509F042C082E890E409
:1008C0000895906508959F70EECF9927906C0895D4
:1008D0009F70906A0895982F8827816F906A089575
:1008E000AC014370552721E030E002C0220F331FD6
:1008F0004A95E2F78695869540E2849FC0011124CF
:10090000822B932B9C680895AC014370552721E0FE
:1009100030E002C0220F331F4A95E2F78695869594
:1009200040E2849FC0011124822B932B9A68089582
:10093000982F882788279F71B2CF81E890E4089587
:1009400083E890E4089582EE94E4089589EE94E4B7
:1009500008958AEE94E4089585EB94E4089586EB77
:1009600094E4089583EB94E4089584EB94E408956B
:1009700087EB94E408958CEC94E408958DEC94E472
:10098000089583E895E408958AE895E4089582E956
:1009900095E4089584E995E4089581E296E4089544
:1009A00083E296E4089584E296E4089585E296E46D
:1009B000089586E296E4089587E296E408958AE22F
:1009C00096E41CCF8238910549F1B0F4813391054A
:1009D00009F45CC048F48932910509F452C08A32A6
:1009E000910509F458C008958533910509F444C070
:1009F0008933910599F00895833E910531F138F4DA
:100A0000803E910591F0823E9105B1F00895863EB9
:100A1000910511F1873E910541F108952091000261
:100A20002370C9F080EE90E008952091000220FF2D
:100A300012C089E390E008952091000222FF0BC0CC
:100A400024FF2EC090E080E008952091000222FD56
:100A50002AC024FDF7CF08952091000223FFFBCF89
:100A600024FDF0CF87EE90E008952091000223FF4F
:100A7000F0CF86EE90E008952091000225FD16C08B
:100A800008952091000225FD14C0089520910002D0
:100A900026FD12C008952091000226FD10C0089581
:100AA00083EE90E0089582EE90E0089589E290E070
:100AB000089585E390E008958AE290E0089581E347
:100AC00090E0C9CF08950F931F93CF938C01FB0142
:100AD0008281811106C0C1E08C2FCF911F910F91AF
:100AE0000895C0914101C11125C00531104799F702
:100AF0000E94620581E0809341010E94BF129093A1
:100B0000400180933F0110923401109236011092FF
:100B10003501109238011092370110923A0110926B
:100B2000390110923C0110923B0110923E0110924B
:100B30003D01D2CF80913F01909140010E94CB12A4
:100B4000883C910540F680913401E82FF0E0EE0FEB
:100B5000FF1FEB5CFE4F118300838F5F8093340196
:100B6000C0E0BACF0C94F8010C94F90185B7806805
:100B700085BF85B7806885BFA3E1B1E061E070E023
:100B80008D91E82FE295EF70F0E041A18F709B010D
:100B900001C0220F8A95EAF7922F9095942391A392
:100BA00082A1822B82A381E0AB31B80749F7259857
:100BB0002D9AEAE4F1E0A2E4B1E082E591E011923D
:100BC0001D928E179F07D9F70C944C03BF92CF92BA
:100BD000DF92EF92FF920F931F93CF93DF9302E484
:100BE00011E083E1C82E81E0D82EE801EE24E394E1
:100BF000F12CBB24B39458811882D6018D916D01DC
:100C0000E82FE295EF70F0E091A18F70970101C09D
:100C1000220F8A95EAF7892F822B81A392A1422F76
:100C20004095942392A3B0EABA95F1F781E01D991B
:100C300080E09881982B988381A1842381A382A14D
:100C4000822B82A38881581741F0B09252010E94F2
:100C5000BF1290935401809353012196EBE1CE167D
:100C6000E1E0DE0641F6809152018823A9F08091EF
:100C70005301909154010E94CB12069768F0EAE468
:100C8000F1E08AE491E0D8012D918D0121938A173A
:100C90009B07C9F7109252010E944E0381E0DF9139
:100CA000CF911F910F91FF90EF90DF90CF90BF9069
:100CB0000895E82FF0E0E65BFE4F808108950895E7
:100CC00090935A01809359010895E0915901F09150
:100CD0005A01309721F00190F081E02D099480E0D5
:100CE0000895E0915901F0915A01309721F0028066
:100CF000F381E02D09940895E0915901F0915A0192
:100D0000309721F00480F581E02D09940895209119
:100D10005701309158012817390771F09093580105
:100D200080935701E0915901F0915A01309721F0D9
:100D30000680F781E02D09940895209155013091A6
:100D400056012817390771F0909356018093550189
:100D5000E0915901F0915A01309721F00084F1851A
:100D6000E02D0994089508950C94B3060E94B612DC
:100D70000E94B6050C946713BF92CF92DF92EF9258
:100D8000FF920F931F93CF93DF93CDB7DEB72A97D0
:100D90000FB6F894DEBF0FBECDBF0E94E6058CE50E
:100DA000C82E81E0D82E10E000E0B02E802F0E94E7
:100DB0005906F82EF601E1906F01E81641F0809196
:100DC000CF0181FD0E945F06EF24E0FC16C00F5F9B
:100DD0001F4F0830110549F78FEF89838A831B82E3
:100DE0000E94BF128160782F9D838C8349815A8134
:100DF0006B818D810E94420718C01E82BF828F2D99
:100E0000817088870E94BF128160782F9A878987B6
:100E10004E815F8168858A850E944207F801E45A05
:100E2000FE4F808191E0892780830E94EA150E940D
:100E3000650690915B018917A9F00E946506809371
:100E40005B012A960FB6F894DEBF0FBECDBFDF91CF
:100E5000CF911F910F91FF90EF90DF90CF90BF90B7
:100E60000C9452032A960FB6F894DEBF0FBECDBF86
:100E7000DF91CF911F910F91FF90EF90DF90CF9076
:100E8000BF900895CF93DF93CDB7DEB72B970FB602
:100E9000F894DEBF0FBECDBF4F83588769877A872E
:100EA0008B871E821D8285E0FE013796DE0111963A
:100EB00001900D928A95E1F749815A816B817C817D
:100EC0008D819E812B960FB6F894DEBF0FBECDBFED
:100ED000DF91CF910C94BF0D882309F4D8C08238DC
:100EE00071F40E94650681FDD2C089E30E940E1153
:100EF0000E94D61189E30E944B110C94D6118338BD
:100F000059F40E94650680FDC2C083E50E940E115F
:100F10000E94D61183E5EFCF843859F40E9465060C
:100F200082FDB5C087E40E940E110E94D61187E4AD
:100F3000E2CF9CEF980F913A18F40E940E11DDCF8A
:100F400090E2980F983050F4877091E001C0990FAB
:100F50008A95EAF7892F0E948D11CFCF9BE5980FD4
:100F6000933070F4853A31F0863A39F083E890E0B6
:100F70000C94870681E890E0FBCF82E890E0F8CF00
:100F800098E5980F953108F082C0883A09F440C07E
:100F9000893A09F440C08A3A09F440C08B3A09F40E
:100FA00040C08C3A09F440C08B3B09F440C08C3BF4
:100FB00009F440C08D3A09F440C0803B09F440C0B8
:100FC0008E3A09F440C08F3A09F440C0813B09F4DD
:100FD00040C0823B09F440C0833B09F440C0843BDD
:100FE00009F440C0853B09F440C0863B09F440C089
:100FF000873B09F440C0883B09F440C0893B09F4B1
:1010000040C08A3B09F440C090E080E00C949D060B
:1010100082EE90E0FBCF89EE90E0F8CF8AEE90E090
:10102000F5CF85EB90E0F2CF86EB90E0EFCF83EB4E
:1010300090E0ECCF84EB90E0E9CF87EB90E0E6CF57
:101040008CEC90E0E3CF8DEC90E0E0CF83E891E092
:10105000DDCF8AE891E0DACF82E991E0D7CF84E969
:1010600091E0D4CF81E292E0D1CF83E292E0CECF83
:1010700084E292E0CBCF85E292E0C8CF86E292E0B4
:10108000C5CF87E292E0C2CF8AE292E0BFCF089557
:10109000882309F44BC0823871F40E94650681FFF1
:1010A00045C089E30E940E110E94D61189E30E9477
:1010B0004B110C94D611833859F40E94650680FFB9
:1010C00035C083E50E940E110E94D61183E5EFCF53
:1010D000843859F40E94650682FF28C087E40E9484
:1010E0000E110E94D61187E4E2CF9CEF980F913A3F
:1010F000F0F290E2980F983050F4877091E001C0C0
:10110000990F8A95EAF7892F0E949311D2CF9BE518
:10111000980F933020F490E080E00C948706885A72
:10112000853120F490E080E00C949D06089588239A
:1011300021F00E948D110C94D6110895882321F07E
:101140000E9493110C94D61108958F929F92AF92A2
:10115000BF92DF92EF92FF920F931F93CF93DF9393
:101160007C01D62FC72FFC01058102950F701281DB
:1011700011110E94AC110E940711D82E882371F022
:10118000112321F180E28D0F883000F182E00E946E
:10119000F1100E94071191E0D82ED926EC2FE2958C
:1011A000EF70F0E0EA52F74F0C94C61EE808E8082A
:1011B000380938097A09960915091509A109150987
:1011C000390A390AAC0A15091509B50AD12CE6CF36
:1011D0000C2F0F70C07F11F00295007F1123A9F032
:1011E000002359F080E28D0F883010F0D11109C032
:1011F000802F0E948D110E94D6118D2F0E946C07A6
:1012000014C0802F0E949E11F6CF8D2F0E94480897
:10121000002359F080E28D0F883010F0D11124C0E6
:10122000802F0E9493110E94D611DD2009F4A4C1E1
:101230000E94E41080FDA0C1F70112820E94DE101E
:101240000E945E0FC7010E94C80A0E94DE10DF9153
:10125000CF911F910F91FF90EF90DF90BF90AF90D3
:101260009F908F900C947F0F802F0E94A411DBCF52
:10127000FC2FFF70BF2EC07FC03219F0B29480EFF8
:10128000B822DD2369F0D13029F1112369F100235F
:1012900059F0F701858180FFB0CF8F70858304C03E
:1012A000112361F0011104C08B2D0E949708BDCF5E
:1012B0008B2D0130D1F70E94C011B7CF011106C0AC
:1012C0000E94C3118B2D0E949E08AFCF013009F4FC
:1012D000ACCFF6CF112321F0063008F0A6CFE4CF33
:1012E000053008F0A2CFEECF002361F38D2F0E94CE
:1012F00048089BCF8C2F86958695837069F0813046
:1013000009F093CF8D2F9C2F9370111102C090E0A4
:1013100080E00E949D0689CF8D2F9C2F9370111124
:1013200002C090E080E00E9487067FCF8D2F1123BE
:1013300029F00E94F3140E94DF1577CF0E945B15FD
:10134000FACF8C2F837009F047C011116ECF2D2F6B
:10135000229526952770220F220F6D2F6F70862EF3
:10136000912CB12CA12C022E04C0880C991CAA1C13
:10137000BB1C0A94D2F760E070E0CB01D4FF0FC031
:101380006FE070E080E090E004C0660F771F881F78
:10139000991F2A95D2F76095709580959095C6957E
:1013A000C695C370C23051F080F4682979298A2922
:1013B0009B29C13071F00E94070F37CF6829792926
:1013C0008A299B290E94230F30CF0E94070FC50155
:1013D000B4010E94EB0E29CF8695112311F08C2FBA
:1013E0008170882309F421CF2D2F2295269527700F
:1013F000220F220F6D2F6F70862E912CB12CA12CF5
:10140000022E04C0880C991CAA1CBB1C0A94D2F79B
:1014100060E070E0CB01D4FF0FC06FE070E080E0CF
:1014200090E004C0660F771F881F991F2A95D2F796
:101430006095709580959095C695C695C370C2309D
:1014400051F080F4682979298A299B29C13071F0EB
:101450000E94E10FEACE682979298A299B290E94F6
:10146000FD0FE3CE0E94E10FC501B4010E94C50F3C
:10147000DCCEE0E2ED0FE53108F062C0F0E0ED5BBC
:10148000F54F0C94C61E580A580A580A580A580AAA
:10149000580A580A580A580A580A580A580A580A3C
:1014A000580A580A580A650A730A7A0A810A8B0A86
:1014B000DF708C2F8F71112321F00E945E0F8D2F12
:1014C000F4CE0E947F0F8D2FFECE112341F0053008
:1014D00008F0ABCE8C2F8F710E94A40FA6CE0630E1
:1014E00008F0A3CEF7CF8C2F8F71112339F00E9413
:1014F0005E0F9BCE8C2F8F711123C9F30E947F0F3B
:1015000094CE112329F08C2F8F710E94490F8DCE1C
:101510000E943F0F8ACE112349F0CF718C2F0E9479
:101520005E0F63E08C2F0E94E8107FCE81E00E9466
:10153000F110023008F479CE82E00E94F11075CEED
:10154000112329F0011159CE8C2F8F71D0CF0111A9
:10155000CDCE8C2F8F71D2CF4C2F4F706D2FC701F6
:101560000E94F5010E94680E60CE4C2F4F706D2FC7
:10157000C7010E94540359CEDF91CF911F910F9163
:10158000FF90EF90DF90BF90AF909F908F90089565
:101590000F931F93CF93DF93EC01988189812B8167
:1015A0003C81232B39F08F3F19F481E09F3F19F0E4
:1015B00080E001C081E080FD17C0CE010E940E02D4
:1015C000882391F0688179818A810E94BA108C0108
:1015D0000E9419100E94E00EB801CE01DF91CF9158
:1015E0001F910F910C94A508DF91CF911F910F913E
:1015F00008950E94AC110E94BD110E947F110E94AB
:10160000D6110E948C160E94DF1590E080E00E94A7
:10161000870690E080E00C949D060E949B110C943C
:10162000F90A0E94B010E92FE295EF70E250EE3017
:10163000E0F4F0E0E25EF44F0C94C61E2C0B2C0B91
:10164000350B350B370B350B350B350B2C0B2C0BAA
:101650003C0B350B350B3C0B803F19F020F4803EE2
:1016600020F481E00895843FE1F380E00895803E16
:10167000C0F3813FD1F7F5CF93FB882780F9089518
:10168000CF93DF9300D000D01F92CDB7DEB70F907D
:101690000F900F900F900F90DF91CF910895CF93FF
:1016A000DF9300D000D000D0CDB7DEB726960FB6BE
:1016B000F894DEBF0FBECDBFDF91CF9108951F9389
:1016C000CF93DF93C091650116E0809166018C1382
:1016D00004C0DF91CF911F910895D0E01C9FF001CD
:1016E0001D9FF00D1124E959FE4F40815181628107
:1016F0007381848195810E944F0B2196C770E5CF3D
:1017000040919701509198016091990170919A01CF
:1017100080919B0190919C010C944F0B1F93CF9350
:10172000DF9380919C01807FD1F48091990188237F
:10173000B1F080916501D0916601B0919701C0919F
:10174000980140919A0150919B01A1E0BF3F09F09F
:10175000A0E0BA016095709516E0D81304C0DF913F
:10176000CF911F91089521E04115510521F02A2FB5
:10177000CF3F09F020E090E020FD38C0189FF00135
:10178000199FF00D1124E959FE4F21812C132EC011
:1017900020812B132BC02281211128C02381348169
:1017A0002417350700F1241B350B283C3105F0F4D4
:1017B00020919C012F70206120939C0126E0289F9E
:1017C000F001299FF00D1124E459FE4F80818F70A4
:1017D0008061808387E991E00E94C80ADF91CF9100
:1017E0001F910C945F0B260F371FDFCF0196877078
:1017F000B4CFAF92BF92CF92DF92EF92FF920F934E
:101800001F93CF93DF93CDB7DEB761970FB6F894F0
:10181000DEBF0FBECDBF8C0185E0F801DE011D9655
:1018200001900D928A95E1F7D8014C9111965C9147
:1018300011971296EC9030919701609198018091E8
:101840009A0190919B0121E0009731F06F3F19F4CC
:1018500021E03F3F09F020E0B22FB170BB2E20FD08
:1018600080C1F801C380D480A0909901AA2009F416
:1018700027C1C816D906D0F1D601A81BB90BCD01D6
:10188000FF24F394883C910508F0F12C80919C0191
:10189000982F907FFF2009F4CAC0911187C0FE2CB9
:1018A000651329C0341327C0E11025C08F708061F3
:1018B00080939C010E94800B87E991E00E94C80AF6
:1018C00080919C01F80185838F2D61960FB6F89465
:1018D000DEBF0FBECDBFDF91CF911F910F91FF9063
:1018E000EF90DF90CF90BF90AF9008958095909546
:1018F0008C0D9D1DC5CF81E0CD2831F05F3F19F4DF
:1019000081E04F3F09F080E080FD24C081E08E251A
:10191000F82FF170DF2E80FF3FC08091650120918C
:10192000660136E0821318C04D875E878D859E85DF
:101930000E94B010292F22952F70223008F12430F8
:1019400030F59F7009F1D80115969C91907FE1F4D4
:10195000FB2CBACF80E0DCCF90E0389FF001399FBC
:10196000F00D1124E959FE4F6181561306C06081C4
:10197000461303C062816E110FC001968770D2CFEB
:101980009F7011F0882321F3805E883008F3C8012E
:101990000E94C80ABD2CDCCFEE2009F495CF8091BF
:1019A0009C01816080939C01F12C8ECF651312C045
:1019B000341310C0E1100EC0F8018583C8010E94E5
:1019C000C80A86E0F801A7E9B1E001900D928A9576
:1019D000E1F741C04D875E878D859E850E94110B82
:1019E000882309F4C8C0EE2009F4C5C080919C0189
:1019F000803270F0209197013091980138872F83C1
:101A00001986DB86CA868C87CE0107960E94C80A93
:101A100086E0F801A7E9B1E001900D928A95E1F71F
:101A20000E948E0B0E94800BFF24F3944DCF9111E6
:101A300015C07C2DD98AC88A6E2D89890E94400BD9
:101A400087E991E00E94C80A86E0E7E9F1E0DF015A
:101A50001D928A95E9F70E94800B36CF651312C05C
:101A6000341310C0E1100EC0F8018583C8010E9434
:101A7000C80AE7E9F1E086E0DF011D928A95E9F7FF
:101A8000FA2C22CF4D875E878D859E850E94110B93
:101A9000882309F470C0EE2009F46DC080919C0188
:101AA000803208F4B5CF20919701309198013A83A4
:101AB00029831B82DD82CC828E83CE010196A6CF44
:101AC000C816D90638F1F601E81BF90BCF01F12C45
:101AD000883C910508F03DC0FE2CEE2009F44BC077
:101AE000651326C0341324C080919C0180FD17C06B
:101AF000982F907FA1F0D80115968C931597903F61
:101B000009F45CCF982F907F905F8F70892B15968A
:101B10008C9354CF809590958C0D9D1DD8CF86E0E9
:101B2000F801A7E9B1E001900D928A95E1F7CCCEDA
:101B30004D875E878D859E850E94110B811168CF30
:101B400080919C01816080939C01C8010E94C80A19
:101B5000BBCE7C2DD98AC88A6E2D89890E94400B04
:101B600073CFEE2041F04D875E878D859E850E9464
:101B7000110B81114DCFC8010E94C80A55CF1F9388
:101B8000CF93DF93CDB7DEB72C970FB6F894DEBFB7
:101B90000FBECDBF4F83588769877A878B879C8715
:101BA000CE0107960E94F90B882309F442C09F8159
:101BB00088852A853B85232B39F08F3F19F481E0F6
:101BC0009F3F19F080E001C081E080FD08C04F8197
:101BD000588569857A858B859C850E944F0B16E018
:101BE0008091650190916601891709F467C0819F12
:101BF000C001112489599E4F0E94F90B882309F4D2
:101C00005DC0E09165011E9FF0011124E959FE4F6E
:101C10004081518162817381848195810E944F0B43
:101C20008091650190E00196877099278093650106
:101C3000D7CF86E0FE013796DE01119601900D9216
:101C40008A95E1F79F8188852A853B85232B39F08A
:101C50008F3F19F481E09F3F19F080E001C081E0DF
:101C600080FDBDCF2091660130E0C90101968770EB
:101C70009927409165014817190699F096E0929FBF
:101C8000D001939FB00D1124A959BE4FFE0131968A
:101C900001900D929A95E1F7809366010E945F0B87
:101CA0009ECF0E940D0B109266011092650186E096
:101CB000E7E9F1E0DF011D928A95E9F72C960FB66E
:101CC000F894DEBF0FBECDBFDF91CF911F91089575
:101CD000EF92FF920F931F93CF93DF938C01892B89
:101CE00081F0F12CEE24E394E8012196F80184912F
:101CF000843770F4843008F05FC08130B1F08230F6
:101D0000A1F1DF91CF911F910F91FF90EF90089576
:101D1000853709F44CC008F43DC09CE7980F903714
:101D200080F78F770E94480849C00E5F1F4FFE0161
:101D3000849190E2980F983060F48770FE2D01C076
:101D4000FF0F8A95EAF78F2F0E94AF110E94D611DC
:101D500002C00E946C078F2D815030F2EFE9FFE046
:101D60003197F1F700C00000F7CF0E5F1F4FFE0163
:101D7000849190E2980F983050F48770FE2D01C046
:101D8000FF0F8A95EAF78F2F0E94B511DFCF0E94CF
:101D90004808E1CF0E5F1F4FFE01C491C150D8F239
:101DA0008FE99FE00197F1F700C00000F7CF0E5FC9
:101DB0001F4FFE01F490CFCF0E946C078E01CBCF56
:101DC00008956093A6017093A7018093A801909352
:101DD000A9010C94F90A0F931F930091A601109189
:101DE000A7012091A8013091A901DC01CB01802B32
:101DF000912BA22BB32B8093A6019093A701A093C4
:101E0000A801B093A9011F910F910C94F90A0F93A7
:101E10001F930091A6011091A7012091A801309174
:101E2000A901DC01CB0180239123A223B32380935A
:101E3000A6019093A701A093A801B093A9011F91B7
:101E40000F910C94F90A0F931F930091A601109122
:101E5000A7012091A8013091A901DC01CB018027C5
:101E60009127A227B3278093A6019093A701A0935F
:101E7000A801B093A9011F910F910C94F90A109237
:101E8000A2011092A3011092A4011092A5010C943A
:101E9000F90A41E050E060E070E004C0440F551FD3
:101EA000661F771F8A95D2F74093A2015093A30132
:101EB0006093A4017093A5010C94F90A41E050E0ED
:101EC00060E070E004C0440F551F661F771F8A95BD
:101ED000D2F78091A2019091A301A091A401B091A9
:101EE000A501842B952BA62BB72B8093A201909351
:101EF000A301A093A401B093A5010C94F90A41E0B9
:101F000050E060E070E004C0440F551F661F771F6B
:101F10008A95D2F740955095609570958091A20171
:101F20009091A301A091A401B091A50184239523D0
:101F3000A623B7238093A2019093A301A093A401A9
:101F4000B093A5010C94F90A41E050E060E070E024
:101F500004C0440F551F661F771F8A95D2F78091E2
:101F6000A2019091A301A091A401B091A5018427A1
:101F70009527A627B7278093A2019093A301A0934A
:101F8000A401B093A5010C94F90A0F931F9300913B
:101F9000A2011091A3012091A4013091A501DC01BF
:101FA000CB01802B912BA22BB32B8093A20190937A
:101FB000A301A093A401B093A5011F910F910C94CC
:101FC000F90A0F931F930091A2011091A301209190
:101FD000A4013091A501DC01CB0180239123A22330
:101FE000B3238093A2019093A301A093A401B09383
:101FF000A5011F910F910C94F90A0F931F93009163
:10200000A2011091A3012091A4013091A501DC014E
:10201000CB0180279127A227B3278093A201909319
:10202000A301A093A401B093A5011F910F910C945B
:10203000F90A0895890F982F977071E001C0770F02
:102040009A95EAF786958695869525E0829FC00148
:10205000112450E040E0A62FB0E0FC01E40FF51F92
:10206000E356FE4F60819D01042E02C036952795F0
:102070000A94E2F72170219526272723262720831B
:102080004F5F5F4F4530510541F70895980FA92FD5
:10209000A77096959695969585E0989FA001112436
:1020A00070E060E080E0FA01E60FF71FE356FE4FB4
:1020B000208130E00A2E02C0369527950A94E2F777
:1020C00021703327062E01C0220F0A94EAF7822BD3
:1020D0006F5F7F4F6530710531F70895BF92CF92E2
:1020E000DF92EF92FF920F931F93CF93DF938C01B8
:1020F000C090A201D090A301E090A401F090A501AE
:102100008091A6019091A701A091A801B091A90189
:10211000C82AD92AEA2AFB2ACFE1D0E0BC2ED7016F
:10212000C6010C2E04C0B695A795979587950A947D
:10213000D2F780FD0EC0219788F7B12C8B2DDF914F
:10214000CF911F910F91FF90EF90DF90CF90BF90B4
:102150000895B8018C2F0E946F03019761F3EECFB1
:10216000CF93DF93EC010E946E10BE01DF91CF91FF
:102170000C946F031F93CF93DF93EB019091640155
:10218000992331F0CB01DF91CF911F910C94B010C6
:10219000882379F0CB010E946E10182F682FCE0192
:1021A0000E941A10BE01812FDF91CF911F910C94D4
:1021B0006F03CB010E944610182FF4CF8091AA0123
:1021C00085958595859508958091AA0187700895D4
:1021D00098E0899F90011124622B6093AA010C94CE
:1021E0005E0F9091AA01809589238093AA01282FE0
:1021F000277061F4282F082E000C330B921713065A
:1022000029F08595859585950C947F0F089590917B
:10221000AA01977081E009F480E00895909112017D
:102220009923E1F09091000297FF18C0E82FE695FE
:10223000E695E695EF3139F12091000130910101E9
:10224000E20FF32FF11D877021E030E001C0220F73
:102250008A95EAF78181822B81830895209100017C
:1022600030910101F90132969FEF40E051918517BD
:1022700051F09F3F19F4511101C0942F4F5F4E311F
:10228000A9F79F3F09F40895290F311D97FD3A954D
:10229000F90182830895909112019923F1F09091B0
:1022A000000297FF1AC0E82FE695E695E695EF3114
:1022B00029F12091000130910101E20FF32FF11D6E
:1022C000282F277081E090E001C0880F2A95EAF757
:1022D0008095918189238183089520910001309117
:1022E0000101F9013296205E3F4F9191891303C09D
:1022F000DF0111971C92E217F307B9F7089581E007
:1023000090E0E0910001F0910101E80FF91F1082C7
:10231000019680329105A9F708959091CE01892BFD
:102320008093CE010895982F90958091CE018923B6
:102330008093CE0108951092CE0108959091CD0121
:10234000892B8093CD010895982F90958091CD0190
:1023500089238093CD0108951092CD010895909125
:10236000CC01892B8093CC010895982F9095809172
:10237000CC0189238093CC0108951092CC0108955B
:102380008093AB0108951092AB0108952091000154
:1023900030910101F9013196205E3F4F80E091912B
:1023A00091118F5FE217F307D1F70895E0910001D3
:1023B000F09101018091CE018083E0910001F091C4
:1023C000010180819091CD01892B8083E0910001F2
:1023D000F091010180819091CC01892B80839091B3
:1023E000AB01992361F0E0910001F091010180813E
:1023F000892B80830E94C61181111092AB018091BC
:102400000001909101010C9471066DEE7EEF90E059
:1024100080E00E94001F60E082E090E00E94EE1EDB
:1024200060E083E090E00E94EE1E60E084E090E0D7
:102430000E94EE1E60E085E090E00C94EE1E90E0BD
:1024400080E00E94E81E21E08D3E9E4F09F020E0D2
:10245000822F089582E090E00C94E01E682F82E0C5
:1024600090E00C94EE1E83E090E00C94E01E682F48
:1024700083E090E00C94EE1E84E090E00C94E01E6B
:10248000682F84E090E00C94EE1E80910602843068
:1024900039F11092D00188E190E020E40FB6F89471
:1024A000A895809360000FBE2093600080E00E949A
:1024B000520383B7817F846083BF83B7816083BF0A
:1024C0007894889583B78E7F83BF0FB6F894A895CC
:1024D00080916000886180936000109260000FBE60
:1024E000089508950895CF930E9471120E94E60501
:1024F0000E947212C0E08C2F0E945906811105C003
:10250000CF5FC830C1F7CF91089581E0FCCF0E9422
:102510000D0B0E9465060C9452031F920F920FB68A
:102520000F9211248F939F93AF93BF938091D0010B
:10253000811113C08091FC019091FD01A091FE01D9
:10254000B091FF014196A11DB11D8093FC019093B4
:10255000FD01A093FE01B093FF01BF91AF919F9148
:102560008F910F900FBE0F901F90189582E084BD41
:1025700093E095BD9AEF97BD80936E0008952FB7B5
:10258000F8948091FC019091FD01A091FE01B09121
:10259000FF012FBF0895CF92DF92EF92FF920F932A
:1025A0001F932FB7F8944091FC015091FD01609169
:1025B000FE017091FF012FBF6A017B01EE24FF2411
:1025C0008C0130E020E0C016D106E206F30650F0A0
:1025D000481B590BCA011F910F91FF90EF90DF909C
:1025E000CF90089541505109F3CF1F920F920FB62B
:1025F0000F9211248F939F93AF93BF938091FC010F
:102600009091FD01A091FE01B091FF010196A11DE5
:10261000B11D8093FC019093FD01A093FE01B09346
:10262000FF01BF91AF919F918F910F900FBE0F90BF
:102630001F9018950E94861AF8942FEF87EA91E66A
:10264000215080409040E1F700C0000087E090EB0F
:10265000DC0180930F0290931002A0931102B093BB
:10266000120288E19CE00FB6F894A8958093600070
:102670000FBE90936000FFCF0F931F93CF93C0E0E6
:10268000082F10E08C2F0E94590680FD08C0CF5FF4
:10269000C830C1F780E0CF911F910F91089560E09D
:1026A0007C2F80E00E9455030817190781F781E00D
:1026B000F2CFCF93C82F8CE20E943C13882321F0E5
:1026C0008C2FCF910C943C1380E0CF910895CF9341
:1026D0000E941F12811102C00E940512C5E608C0A7
:1026E0000E94E6058FE39CE90197F1F700C0000026
:1026F000C150B1F789E20E9459138111EFC08AE2FB
:102700000E94591381110E94051285E00E945913FD
:1027100081110E941A130E942A128093CF0187E030
:102720000E945913882371F08BE10E94591388236A
:1027300009F4B1C09091CF01892F8D7F91FF826004
:102740008093CF018091CF010E942E120E943C12F3
:1027500090E0909301028093000280EE0E94591352
:10276000882341F090910002892F8E7F90FF816035
:102770008093000289E30E945913882341F09091CD
:102780000002892F8D7F91FF82608093000282EE8C
:102790000E945913882341F090910002892F8B7F6A
:1027A00092FF84608093000286EE0E945913882372
:1027B00041F090910002892F877F93FF886080937A
:1027C000000283EE0E945913882341F09091000289
:1027D000892F8F7E94FF80618093000285E30E94A1
:1027E0005913882341F090910002892F8F7D95FF26
:1027F00080628093000281E30E945913882341F094
:1028000090910002892F8F7B96FF80648093000255
:1028100081E10E945913882341F090910002892F91
:1028200097FB87F9805880930002809100020E94F4
:10283000401287E20E945913C82F8EE10E9459135B
:102840008111C2608FE10E9459138111C46080E23E
:102850000E9459138111C86081E20E9459138111AD
:10286000C06182E20E9459138111C06283E20E941A
:1028700059138111C06484E20E945913882341F1E5
:10288000C0688C2F0E9437126C2F70E090E080E0BF
:10289000CF910C94E10E8EE00E945913882339F0F9
:1028A0009091CF01892F8B7F92FF846049CF80E187
:1028B0000E9459139091CF01882329F0892F877F97
:1028C00093FF88603DCF892F8E7F90FF816038CF46
:1028D000C111D7CF0E943312682FD7CFCF9108955F
:1028E0008091D30180FF12C06091050185E0689F4F
:1028F000B0011124759567957595679560387105D8
:10290000A8F561157105A1F1862F089581FF09C011
:102910006091050185E0689FB00111247595679568
:10292000EDCF82FF07C06091050185E0689FB0018F
:102930001124E4CF2091D4012223A9F09091040125
:102940006091050185E0689FB00111242917B0F658
:10295000269FA001279F500D1124692F70E0CA0106
:102960000E94B21ECBCF65E070E0CECF8FE7089516
:1029700081E008958091D30180FF0CC06091030134
:1029800070E075956795759567956115710549F1C5
:10299000862F089581FF06C06091030170E0759550
:1029A0006795F3CF6091030182FD0BC09091D40134
:1029B0009923A1F06091020180910301961738F0EC
:1029C000682F70E06038710500F38FE70895899FE4
:1029D000C001112470E00E94B21EF4CF61E070E0EB
:1029E000D7CF81E00895803F31F40E947014819523
:1029F0008093D7010895813F19F40E947014F8CF95
:102A0000823F31F40E94701481958093D60108951D
:102A1000833F19F40E947014F8CF893F29F40E9473
:102A2000BA148093D80108958A3F21F40E94BA1401
:102A30008195F7CF8B3F31F40E94BA148195809332
:102A4000D90108958C3F19F40E94BA14F8CF843F3D
:102A500031F48091D50181608093D5010895853F3F
:102A600021F48091D5018260F7CF863F21F48091D7
:102A7000D5018460F1CF873F21F48091D501886032
:102A8000EBCF883F21F48091D5018061E5CF8D3F68
:102A900031F48091D30181608093D30108958E3FFA
:102AA00021F48091D3018260F7CF8F3FB9F78091F5
:102AB000D3018460F1CF803FC1F48091D70187FDBD
:102AC0001092D7018091D60181110EC08091D7015B
:102AD00081110AC08091D801811106C08091D9016D
:102AE000811102C01092D4010895813F29F4809190
:102AF000D70118162CF3E6CF9091D601823F29F426
:102B000097FFE0CF1092D601DDCF833F19F419165D
:102B1000CCF3D8CF893F39F48091D801181694F6B8
:102B20001092D801CFCF8A3F29F48091D80187FF36
:102B3000C9CFF6CF8B3F39F48091D90187FFC2CF3F
:102B40001092D901BFCF8C3F29F48091D90118167A
:102B5000BCF3B8CF843F31F48091D5018E7F809350
:102B6000D501B0CF853F21F48091D5018D7FF7CF7E
:102B7000863F21F48091D5018B7FF1CF873F21F4EF
:102B80008091D501877FEBCF883F21F48091D501DB
:102B90008F7EE5CF8D3F31F48091D3018E7F80937E
:102BA000D30190CF8E3F21F48091D3018D7FF7CF59
:102BB0008F3F09F087CF8091D3018B7FF0CF85EDD8
:102BC00091E00E947C060E94BF129093D2018093F4
:102BD000D10108951F93CF93DF938091D1019091FC
:102BE000D2010E94CB12AC019091D4012091060138
:102BF00030E0911106C0209107018AE0289F9001E2
:102C000011244217530780F08091D601C091D7015B
:102C10001091D801D091D90181110AC0C11178C099
:102C2000111176C0D11174C0DF91CF911F91089519
:102C30009F3F19F09F5F9093D401181624F40E94CF
:102C400070148093D6018091D60187FF05C00E9441
:102C5000701481958093D6011C1624F40E94701480
:102C60008093D7018091D70187FF05C00E9470141F
:102C700081958093D7016091D601662331F1C0918F
:102C8000D701CC2311F1062E000C770B880B990B82
:102C90000E94B91D23E333E343E35FE30E941D1E5B
:102CA0000E94811D6093D6016C2FCC0F770B880B8F
:102CB000990B0E94B91D23E333E343E35FE30E94D2
:102CC0001D1E0E94811D6093D701111624F40E94DD
:102CD000BA148093D8018091D80187FF05C00E9463
:102CE000BA1481958093D8011D1624F40E94BA1459
:102CF0008093D9018091D90187FF05C00E94BA1441
:102D000081958093D901DF91CF911F910C94DF15AC
:102D10009F3F09F08FCFA0CF85E0E5EDF1E0DF0127
:102D20001D928A95E9F71092D4011092D30108956B
:102D30008091FA010895CF93DF9300D01F92CDB711
:102D4000DEB79C0180910602843019F593E09983E7
:102D50003B832A839093E9008FEF9091E8008150A4
:102D600095FD06C095ED9A95F1F700008111F5CF1C
:102D70008091E80085FF0DC050E040E063E070E026
:102D8000CE0101960E94F6188091E8008E7780931C
:102D9000E8000F900F900F90DF91CF910895CF939F
:102DA000DF9300D01F92CDB7DEB72091060224300A
:102DB00031F522E02983805891099B838A8383E03F
:102DC0008093E9008FEF9091E800815095FD06C057
:102DD00095ED9A95F1F700008111F5CF8091E8000B
:102DE00085FF0DC050E040E063E070E0CE01019649
:102DF0000E94F6188091E8008E778093E8000F908B
:102E00000F900F90DF91CF9108959C018091060261
:102E10008430F9F482E08093E9009FEF8091E8002C
:102E2000915085FD06C085ED8A95F1F7000091115E
:102E3000F5CF8091E80085FF0CC050E040E065E0F0
:102E400070E0C9010E94F6188091E8008E778093A7
:102E5000E8000895CF93DF93EC018091060284305F
:102E6000F1F4909112019923E9F09091000297FFFB
:102E700019C08093E9008FEF9091E800815095FD93
:102E800006C095E19A95F1F700008111F5CF809188
:102E9000E80050E040E060E270E085FD1AC0DF919C
:102EA000CF91089581E08093E9008FEF9091E80041
:102EB000815095FD06C095ED9A95F1F700008111BE
:102EC000F5CF8091E80085FFEACF50E040E068E070
:102ED00070E0CE010E94F6188091E8008E77809312
:102EE000E80080E2FE01AAEDB1E001900D928A9522
:102EF000E1F7D5CF80910502811109C00E94861AA1
:102F00000E94E31A8091E20084608093E2000895B9
:102F1000109205020895089508950C94871242E0D6
:102F200061EC81E00E94041A42E061EC82E00E94C0
:102F3000041A42E061EC83E00E94041A42E261EC70
:102F400084E00C94041A80910802833009F455C07F
:102F500030F4813071F1823009F491C008958A30E3
:102F600009F47DC08B3009F463C0893009F044C096
:102F700080910702813209F03FC080910B0290914D
:102F80000C02009711F00397B9F58091E800877F54
:102F90008093E8008091E80082FF2AC08091F100D0
:102FA0008093FA018091E8008B778093E8000C947D
:102FB000381A80910702813AF9F48091E800877FFE
:102FC0008093E80080910B0290910C02892B61F4B0
:102FD00060E28AED91E070E00E9445198091E8007E
:102FE0008B778093E800089560E090E080E0F3CF75
:102FF000809106028111CECF089580910702813A17
:10300000D9F780910B0290910C02892BA9F780913E
:10301000E800877F8093E8008091E80080FFFCCF84
:10302000809112018093F1008091E8008E77BDCFEE
:1030300080910702813201F780910B0290910C027E
:10304000892BD1F68091E800877F8093E8000E9469
:10305000381A80910902809312010C940D0B809113
:103060000702813249F68091E800877F8093E8006B
:103070000E94381A80910A028093FB010895809182
:103080000702813A09F0B8CF8091E800877F8093EA
:10309000E8008091E80080FFFCCF8091FB01C2CF67
:1030A00084B7877F84BF0FB6F894A895809160009D
:1030B000886180936000109260000FBE80E880936A
:1030C0006100109261000E94B4060E94861A0E945C
:1030D000E31A8091E20084608093E20078940E9479
:1030E000651D0E94B60688E091E00E94600680910E
:1030F0000602853019F00E94BC06F9CF0E944512E5
:1031000080910402882399F30E947312882379F333
:103110000E94E018ECCF292F33272330310579F1B5
:1031200058F421303105F1F02230310519F190E0E9
:1031300080E030E020E01AC02132310599F12232DE
:103140003105A9F7643098F770E0FB01EE0FFF1F1F
:10315000E15EFE4F20813181655E7E4FFB01808103
:1031600090E004C082E190E029E432E0FA0131838A
:10317000208308958DE690E02CED31E0F7CF99277C
:103180008130910561F028F0029789F6ECEAF1E0D0
:1031900002C0E8EDF1E0849190E09F01E7CFE0EC20
:1031A000F1E0F9CF643008F0C2CFE62FF0E0EE0F87
:1031B000FF1FE95DFE4F2081318189E090E0D6CF8D
:1031C00080E189BD82E189BD09B400FEFDCF809117
:1031D000D8008F7D8093D8008091E000826080933A
:1031E000E0008091E00081FDFCCF0895AF92BF9296
:1031F000CF92DF92FF920F931F93CF93DF936C01D7
:10320000EB018A010E94571AF82E811123C0011583
:10321000110539F0F80180819181C81BD90BC80EC6
:10322000D91EB12CA12C2097A9F08091E80085FD32
:1032300022C08091E8008E778093E8000115110587
:10324000A1F0F80180819181A80EB91EB182A082FF
:1032500085E0F82E8F2DDF91CF911F910F91FF9078
:10326000DF90CF90BF90AF9008950E94571A8823A7
:10327000D1F2F82EEFCFF60181916F018093F1002A
:103280002197FFEFAF1ABF0ACECFFC0180910D024C
:1032900090910E0286179707A0F06115710529F429
:1032A0009091E8009E779093E80090E06115710599
:1032B00051F4911108C08091E80082FF35C080E090
:1032C0000895BC01F2CF809106028823C9F18530B0
:1032D000C9F18091E80083FD31C08091E80082FD52
:1032E000EACF8091E80080FFE1CF2091F300809148
:1032F000F200322F282F6115710519F028303105A1
:1033000058F091E02830310509F090E02091E80074
:103310002E772093E800CACF81918093F10061500D
:1033200071092F5F3F4FE7CF80910602882341F05C
:10333000853041F08091E80083FFBDCF81E00895A2
:1033400082E0089583E00895FC0180910D02909140
:103350000E0286179707A0F06115710529F4809178
:10336000E8008E778093E80090E06115710551F4D4
:10337000911108C08091E80082FF36C080E0089576
:10338000BC01F2CF809106028823D1F18530D1F1C2
:103390008091E80083FD32C08091E80082FDEACF91
:1033A0008091E80080FFE1CF2091F3008091F2004E
:1033B000322F282F6115710519F02830310558F08A
:1033C00091E02830310509F090E08091E8008E7797
:1033D0008093E800CACF84918093F10031966150C8
:1033E00071092F5F3F4FE6CF80910602882341F09D
:1033F000853041F08091E80083FFBCCF81E00895E3
:1034000082E0089583E00895982F973028F08F7018
:103410008093E90081E008959093E900242F762FAE
:1034200050E0981731F07091EC002091ED00509130
:10343000F00021FD02C09F5FE8CF3091EB003E7F9E
:103440003093EB003091ED003D7F3093ED003091F3
:10345000EB0031603093EB007093EC002093ED00B3
:103460005093F0002091EE0027FDE5CF80E0089515
:103470008091070287FF13C08091E80082FF06C099
:103480008091E8008B778093E80004C08091060269
:103490008111F2CF0895809106028823D9F380919B
:1034A000E80080FFF8CF8091E8008E77ECCF209184
:1034B000E4003091E50085E69091EC0090FF06C0B5
:1034C0009091E80090FF06C080E008959091E80098
:1034D00092FDFACF90910602992391F0953091F0E8
:1034E0009091EB0095FD10C04091E4005091E500F3
:1034F0002417350709F381509A01F1F684E0089505
:1035000082E0089583E0089581E008950E94F41A0E
:103510000E94FC1AE0EEF0E0808181608083E8ED9B
:10352000F0E080818F77808319BCA7EDB0E08C91AB
:103530008E7F8C9380818F7E808310920502089508
:103540000F931F93CF93DF930E94F41A0E94FC1AEB
:10355000C8EDD0E088818F778883888180688883F0
:1035600088818F7D888319BC109206021092020216
:10357000109204021092030200EE10E0F801808124
:103580008B7F808388818160888342E060E080E077
:103590000E94041AE1EEF0E080818E7F8083E2EEEB
:1035A000F0E0808181608083808188608083F80181
:1035B00080818E7F8083888180618883DF91CF9135
:1035C0001F910F910895E8EDF0E080818F7E808358
:1035D000E7EDF0E080818160808384E082BF81E05C
:1035E000809305020C94A01AE8EDF0E080818E7FB4
:1035F00080831092E20008951092DA001092E100A8
:1036000008951F920F920FB60F9211242F933F939C
:103610004F935F936F937F938F939F93AF93BF93DA
:10362000EF93FF938091E10082FF0BC08091E20055
:1036300082FF07C08091E1008B7F8093E1000E94B0
:10364000641D8091DA0080FF19C08091D80080FF4E
:1036500015C08091DA008E7F8093DA008091D900C6
:1036600080FF94C080E189BD82E189BD09B400FE7C
:10367000FDCF81E0809306020E947A178091E100DD
:1036800080FF19C08091E20080FF15C08091E200A8
:103690008E7F8093E2008091E20080618093E2005F
:1036A0008091D80080628093D80019BC85E0809317
:1036B00006020E948C178091E10084FF29C080914E
:1036C000E20084FF25C080E189BD82E189BD09B4A3
:1036D00000FEFDCF8091D8008F7D8093D80080912F
:1036E000E1008F7E8093E1008091E2008F7E8093E5
:1036F000E2008091E20081608093E200809102020A
:10370000882309F449C084E0809306020E948D1743
:103710008091E10083FF29C08091E20083FF25C0F2
:103720008091E100877F8093E10082E08093060230
:10373000109202028091E1008E7F8093E1008091DF
:10374000E2008E7F8093E2008091E20080618093AE
:10375000E20042E060E080E00E94041A8091F00004
:1037600088608093F0000E948B17FF91EF91BF91CA
:10377000AF919F918F917F916F915F914F913F9109
:103780002F910F900FBE0F901F90189519BC10929B
:1037900006020E94881772CF8091E30087FD02C065
:1037A00081E0B2CF83E0B0CF1F920F920FB60F929D
:1037B00011242F933F934F935F936F937F938F9336
:1037C0009F93AF93BF93CF93EF93FF93C091E90083
:1037D000CF708091EC001092E9008091F000877F1B
:1037E0008093F00078940E94101C1092E900809160
:1037F000F00088608093F000C093E900FF91EF91A2
:10380000CF91BF91AF919F918F917F916F915F9178
:103810004F913F912F910F900FBE0F901F901895D1
:103820001F93CF93DF93CDB7DEB7AA970FB6F89467
:10383000DEBF0FBECDBFE7E0F2E08091F1008193E3
:1038400022E0EF30F207C9F70E94A3178091E80049
:1038500083FF42C080910702909108029A3008F0DD
:103860003BC0E92FF0E0E95CF34E0C94C61E411C0E
:10387000651C6C1C651C6C1CC01CE21C6C1C371D80
:10388000441D803879F0823839F580910B028F70B1
:103890008093E9008091EB0085FB882780F91092E6
:1038A000E90006C0809103029091040291118260A8
:1038B0009091E800977F9093E8008093F100109238
:1038C000F1008091E8008E772DC0282F2D7F21F404
:1038D0008823D1F0823059F18091E80083FF0AC03B
:1038E0008091E800877F8093E8008091EB00806200
:1038F0008093EB00AA960FB6F894DEBF0FBECDBF43
:10390000DF91CF911F91089580910902813021F7B5
:10391000933009F080E0809304021092E9008091D6
:10392000E800877F8093E8000E94381AD5CF809105
:1039300009028111F2CF80910B028F7069F280939E
:10394000E9002091EB0020FFE8CF933031F4809123
:10395000EB0080628093EB00E0CF9091EB009061F0
:103960009093EB0021E030E001C0220F8A95EAF746
:103970002093EA001092EA008091EB008860EACF81
:103980008111AACF109109021F778091E3008078FE
:10399000812B8093E3008091E800877F8093E8008B
:1039A0000E94381A8091E80080FFFCCF8091E300EC
:1039B00080688093E30083E0111101C082E080936E
:1039C00006028ACF8058823008F086CF80910902A3
:1039D00090910A028C3D23E09207A1F583E08A834F
:1039E0008AE289834FB7F894DE01139620E03EE027
:1039F00051E2E32FF0E050935700E49120FF03C021
:103A0000E295EF703F5FEF708E2F90E0EA30C0F0EC
:103A1000C7968D939D932F5F243159F74FBF8091A7
:103A2000E800877F8093E8006AE270E0CE010196AB
:103A30000E9445198091E8008B778093E8004CCF75
:103A4000C096E7CFAE014F5F5F4F60910B020E94BF
:103A50008B18BC01892B09F43FCF9091E800977F28
:103A60009093E80089819A810E94A419E3CF80385D
:103A700009F032CF8091E800877F8093E800809141
:103A800002028093F1001DCF811126CF909109028F
:103A9000923008F021CF8091E800877F8093E80082
:103AA000909302020E94381A80910202882331F01A
:103AB00084E0809306020E948F170ECF8091E3006E
:103AC00087FDF6CF81E0F5CF0895CF938091060270
:103AD000882399F0C091E900CF708091EC0080FDBF
:103AE0000EC080E0C82B1092E9008091E80083FDB1
:103AF0000E94101CCF70C093E900CF91089580E818
:103B0000F1CF0E94881D6894B1110C94171E08957E
:103B10000E94FC1D88F09F5798F0B92F9927B75144
:103B2000B0F0E1F0660F771F881F991F1AF0BA9561
:103B3000C9F714C0B13091F00E94161EB1E008958B
:103B40000C94161E672F782F8827B85F39F0B93F7D
:103B5000CCF3869577956795B395D9F73EF4909514
:103B60008095709561957F4F8F4F9F4F0895E89492
:103B700009C097FB3EF490958095709561957F4FB5
:103B80008F4F9F4F9923A9F0F92F96E9BB27939563
:103B9000F695879577956795B795F111F8CFFAF473
:103BA000BB0F11F460FF1BC06F5F7F4F8F4F9F4FA4
:103BB00016C0882311F096E911C0772321F09EE802
:103BC000872F762F05C0662371F096E8862F70E068
:103BD00060E02AF09A95660F771F881FDAF7880F42
:103BE0009695879597F9089557FD9058440F551F5E
:103BF00059F05F3F71F04795880F97FB991F61F06F
:103C00009F3F79F087950895121613061406551FE5
:103C1000F2CF4695F1DF08C0161617061806991F51
:103C2000F1CF86957105610508940895E894BB2746
:103C300066277727CB0197F908950E94301E0C94D0
:103C4000A11E0E94931E38F00E949A1E20F0952318
:103C500011F00C948A1E0C94901E11240C94171EC3
:103C60000E94F41D70F3959FC1F3950F50E0551F0E
:103C7000629FF001729FBB27F00DB11D639FAA27C1
:103C8000F00DB11DAA1F649F6627B00DA11D661F10
:103C9000829F2227B00DA11D621F739FB00DA11D31
:103CA000621F839FA00D611D221F749F3327A00DEB
:103CB000611D231F849F600D211D822F762F6A2F87
:103CC00011249F5750409AF0F1F088234AF0EE0FEC
:103CD000FF1FBB1F661F771F881F91505040A9F719
:103CE0009E3F510580F00C948A1E0C94171E5F3F76
:103CF000E4F3983ED4F3869577956795B795F79555
:103D0000E7959F5FC1F7FE2B880F911D96958795CC
:103D100097F9089597F99F6780E870E060E008954B
:103D20009FEF80EC089500240A94161617061806D3
:103D30000906089500240A941216130614060506AF
:103D40000895092E0394000C11F4882352F0BB0F40
:103D500040F4BF2B11F460FF04C06F5F7F4F8F4FA3
:103D60009F4F089597FB072E16F4009407D077FD18
:103D700009D00E94CC1E07FC05D03EF49095819599
:103D80009F4F0895709561957F4F0895EE0FFF1F27
:103D90000590F491E02D0994AA1BBB1B51E107C0CB
:103DA000AA1FBB1FA617B70710F0A61BB70B881FCB
:103DB000991F5A95A9F780959095BC01CD0108955A
:103DC000F999FECF92BD81BDF89A992780B50895E3
:103DD000A8E1B0E042E050E00C94081F262FF999CA
:103DE000FECF92BD81BDF89A019700B4021639F05A
:103DF0001FBA20BD0FB6F894FA9AF99A0FBE08952B
:103E00000196272F0E94EF1E0C94EE1EDC01CB01C1
:103E1000FC01F999FECF06C0F2BDE1BDF89A3196DA
:103E200000B40D9241505040B8F70895F894FFCF78
:103E3000AC012808140A321E98162A170517CF1647
:103E40009B16016697C63436323331404D363917EA
:103E500003CA0294025B02EE01070220023902004B
:00000001FF
